:03000000020D6E80
:0C0D6E00787FE4F6D8FD75817A020DB59F
:1008A6003F800000000000003F7EC56DBDC8B43922
:1008B6003F7B15B5BE47C84B3F74F766BE94A2345E
:1008C6003F6C84B6BEC3F1413F61C433BEF15B5792
:1008D6003F54DD2FBF0E3BCD3F45E354BF22680A90
:1008E6003F350481BF3504813F22680ABF45E35482
:1008F6003F0E3BCDBF54DD2F3EF15B57BF61C43386
:100906003EC3F141BF6C84B63E94A234BF74F76611
:100916003E47C84BBF7B15B53DC8B439BF7EC56DD4
:1009260000000000BF800000BDC8B439BF7EC56DA1
:10093600BE47C84BBF7B15B5BE94A2343F74F7665D
:10094600BEC3F141BF6C84B6BEF15B57BF61C43311
:10095600BF0E3BCDBF54DD2FBF22680ABF45E3540F
:10096600BF350481BF350481BF45E354BF22680A01
:10097600BF54DD2FBF0E3BCDBF61C433BEF15B5705
:10098600BF6C84B6BEC3F141BF74F766BE94A23491
:10099600BF7B15B5BE47C84BBF7EC56DBDC8B43954
:1009A6000000000000000000000000000000000041
:1009B60000000070F8FCFE7F7F7FFEFCF8700000F0
:1009C6000000000000000000000000000000000021
:090FBE00010809010906011200F5
:1009D60075F008A4FF900208E0FBA3E0FAA3E0226A
:1009E60075F008E53BA42400F582E5F03400F583B4
:1009F600E0FCA3E0FDA3E0FEA3E0FF22F5831206E0
:100A06000F900210E0F8A3E0F9A3E0FAA3E0FB02DE
:100A160001167E007F081204C4E5402401FFE4337A
:100A2600FEEF780322F580AF087E00120F6B75A0EB
:100A3600FF75B0FFEAC313FAEB13FBEA4480FA2210
:100A4600E4FBFAF9784212021FE4FBFA7980783F58
:100A560012002502037390020874FFF5F012055187
:100A660045F022900214E075F008A42275F008A45F
:100A76002400F582E5F03400F58302061F90020893
:100A8600740FF0A374A0F022900208E0FEA3E0FF2A
:100A96007C007DFA1204FCED4C2275F008E53BA4BF
:100AA6002404F582E5F03400227B007E007F0802F4
:100AB60004C4F9E53E75F008A4F58222A804A90548
:100AC600AA06FB020116E4F580EAF5A0AF038FB093
:100AD600222FF9EA3EA801FCAD03222FF9EA35F0F0
:090AE600FA227453253BF8E622C4
:10000300EF4488F5BC00000000E5BC30E4FB53BCC2
:04001300EFAFBD226C
:0C0FB200E4F5BD75BC807F02FE020F88D4
:100F8800EF1FAA0670011E4A60107C137D88ED1DB4
:0A0F9800AA0470011C4A60E880F40E
:010FA200222C
:100DFA00120A6924AAF582E43408120A02C004C05D
:100E0A0005C006C007120A6924A6F582E43408F56B
:100E1A008312060F90020C120A0AD003D002D001E4
:100E2A00D0001200218F0D8E0C8D0B8C0A120A69CC
:100E3A0024A6F582E43408120A02C004C005C006DA
:100E4A00C007120A6924AAF582E43408F583120657
:100E5A000F90020C120A0AD003D002D001D000125D
:0B0E6A0000258F118E108D0F8C0E22C2
:040EDC00AB05AA07B1
:100EE000754F00755001E4F551E551C39B5013AEA9
:100EF0004FAF50EAFD7C001204EA8E4F8F5005512F
:060F000080E7AE4FAF5088
:010F060022C8
:0E068C00900208EBF0A3EAF0A3E9F0A3EDF072
:10069A00F53D754201AF3D7E01EF7801088002C346
:1006AA0013D8FCF53D64016004054280E8E4F54096
:1006BA0090020BE014FFE540D39F400302076685D2
:1006CA004043E4F53F85423EE53ED394004020E5B1
:1006DA003E14FFE5435401FEA807088002C333D83D
:1006EA00FC253FF53FE543C313F543153E80D9E5A5
:1006FA0040C3953F5061E53F120A21C333CE33CE42
:10070A00D8F91209DA2FF9EA3EFA78477C007D0017
:10071A00120A18C333CE33CED8F91209DA2FF9EAFE
:10072A003EFAC003C002C001E53F120A21C333CE1C
:10073A0033CED8F91209DA120AD7D001D002D0037F
:10074A00120A18C333CE33CED8F91209DA120AD7ED
:10075A007A007947120AAF05400206BA754101E5E7
:10076A0041D3954240030208A5AD417F02120EDC37
:10077A008F44E544C313F545753F01E53FD39545DD
:10078A0040030208A0853F3E90020BE0FFE53EC30E
:10079A009F400302089BE53E2545F5461209D612FD
:1007AA000AE1780C7C027D01120AB1E53F24FFFFC1
:1007BA00E434FFFE90020BE0FD7C001204EAAD4433
:1007CA001204FC900214EFF0120DFA78477C007DB7
:1007DA00007A00790A120AAF1209DB120AB885F008
:1007EA0083120595AB4AAA49A948A84712002112C3
:1007FA0009DBF9E546120ABB85F0831205DFE53EFF
:10080A0075F008A429F9EA35F0FA90000412059562
:10081A00AB4EAA4DA94CA84B120021C006C007E551
:10082A00461209D6120AE1900004D007D006120532
:10083A00DF1209DB120AB8E92582F9EA35F0FAC0B3
:10084A0003C002C001120575AB4AAA49A948A847C4
:10085A00120025D001D002D0031205C5E53E1209C7
:10086A00D6120AE1E92404F9E43AFAC003C002C044
:10087A0001120575AB4EAA4DA94CA84B120025D002
:10088A0001D002D0031205C5E544253EF53E020714
:0B089A0092053F020785054102076937
:0108A5002230
:100BEB00E4F53B753B01120AA0F58312062B0000BE
:100BFB000000053BE53BB441ED7B017A0079007DBC
:100C0B004012068C753B01120AA01209F4120AC29B
:100C1B00C004C005C006C0071209E6120AC2D00301
:100C2B00D002D001D000120025120CC6E53B120AEF
:100C3B0072053BE53BC3944140CD753B02E53BC39D
:100C4B00942250721209E6120A468F3C120AE8C32C
:100C5B00953C502E7413253BF876FFE53CD394015D
:100C6B0040117413253BF8C000E625E0D000F615C3
:100C7B003C80E81209E6120A467453253BF8A60796
:100C8B00802D120AE8D394014001167413253BF80A
:100C9B0076FF120AE8F53CE53CD39401401174133E
:100CAB00253BF8C000E625E0D000F6153C80E805B2
:060CBB003B053B020C4862
:010CC1002210
:100F6B00EF1F70011E144E6013E4FCFDC3ED9405DE
:0C0F7B00EC940050EB0DBD00010C80F068
:010F87002247
:100F0700E4F5937594FFF58075914375923075906C
:100F1700BFF5957596FFF5A0F5B175B2FFF5B075FC
:030F27009D032205
:100F2A007BFF7A7FE4F552E552C394205013120AEC
:100F3A00CC74132552F8E6F4120A2B055205528096
:010F4A00E6C0
:010F4B002283
:100F4C007BFF7A7FE4F53B120ACCE53B2512900936
:0E0F5C00A693120A2B053BE53BC3941040E917
:010F6A002264
:0F0FA300758910D2AFE4F58DF58BD2ABD28E22CB
:100E7500120A83120A5C600C120A8E7002051212A5
:100E85000F4C80EF120A83120A5C6005120F4C802A
:100E9500F6120A83120A5C600C120A8E70020512A1
:050EA500120F4C80EF6C
:010EAA002225
:100AEF007536027537BCE4F53A120F07120E751200
:100AFF000FB2120FA3E4F5387F01120003EFFD7C54
:100B0F0000E4FF120003EF2DFFE433FEEFA8090806
:100B1F008005C333CE33CED8F9FDAC06EC12033AC1
:100B2F00E538120A720538E538C3944140CA120BF2
:100B3F00EBE4FFFEFD7C42900010E0F8A3E0F9A388
:100B4F00E0FAA3E0FB1202BC50180537E53770023C
:100B5F000536642C7004E53664017099F536F53767
:100B6F00806E753600753701053AE53A64AF7085CA
:100B7F00F53AFBFAF978429000101209F612021FAB
:100B8F001203738F397407C3953950047F018002A4
:100B9F007F00D3EF648094885006750904020B041C
:100BAF007404C3953950047F0180027F00D3EF6432
:100BBF008094865006750905020B047402C395399B
:100BCF0050047F0180027F00D3EF6480948450062D
:0C0BDF00750906020B04750907020B04DF
:03001B00020EAB27
:100EAB00C0E0C0D075D000C000C002C003C004C0F9
:100EBB0005C006C007758D8A758BD0120F2AD00717
:100ECB00D006D005D004D003D002D000D0D0D0E0D3
:010EDB0032E4
:10001E000203DFE86480F8E933E83360110460F02E
:10002E00ED33EC337009E8FCE9FDEAFEEBFF220448
:10003E0060DED3EB9FEA9EE99DE8C2E78CF0C2F743
:10004E0095F0400CE8CCF8E9CDF9EACEFAEBCFFB0F
:10005E001203AA85D0F05804700320D5B3E80470BB
:10006E00075002B2D50203E992D5EC0460F7E4CC56
:10007E00C0E0C398F8603B94186008400DD0E0FBD8
:10008E000203C1E4FBFAC9FC8028E830E406E4C9A7
:10009E00FBE4CAFCE830E305E4C9CACBFCE854072C
:1000AE006010F8C3E913F9EA13FAEB13FBEC13FC37
:1000BE00D8F130F52FC3E49CFCEF9BFFEE9AFEEDDA
:1000CE0099FDD0E0FBEF4E4D4C701222DB03020384
:1000DE00E6EC2CFCEF33FFEE33FEED33FDED30E7B7
:1000EE00EB0203C1EF2BFFEE3AFEED39FDD0E0FB44
:1000FE0050130BBB00030203E9ED13FDEE13FEEFED
:08010E0013FFEC13FC0203C116
:10011600EC4D6011E8497017ED33EC3304600DE4E3
:10012600FCFFFEFD22E933E8330470F80203DF1218
:1001360003AA58046009E4CC248150062850090219
:1001460003E92840030203E6C0E0EB4A7044B980A5
:1001560006D0E0FB0203D5EF4E701CBD8008EBFF16
:10016600EAFEE9FD80EBE98DF0A4FEE5F00201FF71
:10017600E9CDF9EAFEEBFFEF89F0A4FCE5F0CE89C4
:10018600F0A42EFFE435F0CD89F0A42DFEE435F081
:100196008067EF4E7005BD80D780C3EF8BF0A4ACAF
:1001A600F0EE8BF0A42CFCE435F0F8EF8AF0A42CEA
:1001B600E5F038FCE433CB8DF0A42CFCE5F03BF8FD
:1001C600EE8AF0A42CFCE5F038F8E433CF89F0A4ED
:1001D6002CFCE5F038CF3400CE89F0A42FFFE5F0F3
:1001E6003EFEE433C98DF0A42EFEE5F039CD8AF04B
:1001F600A42FFFE5F03EFEE43DFD33D0E0FB5007C3
:100206000BBB000F0203E9EC2CFCEF33FFEE33FED1
:06021600ED33FD0203C1FF
:10021C000203E9EC5D046005E8590470030203DF96
:10022C001203AA580460F6EC4860F2EC7004FDFE70
:10023C00FF22C860DB2481C85009C39860025006B5
:10024C000203E69850CAF582E9294B4A7005AB8245
:10025C000203D575F0007C1A7880C3EF9BEE9AED03
:10026C0099400DC3EF9BFFEE9AFEED99FDE842F02D
:10027C00DC23ACF0D0E0FFD0E0FED0E0FDAB822080
:10028C00E7101BEB60BAEC2CFCEF33FFEE33FEED0A
:10029C0033FD0203C1E803F830E705C0F075F00048
:1002AC00EF2FFFEE33FEED33FD40B830E7C280AAEE
:1002BC0074F8CC6480CCC86480C8F58204604FC3E9
:1002CC00EB9FF5F0EA9E42F0E99D42F0E89C45F088
:1002DC00603C501DE5825FFFE582D313CB5BCBF412
:1002EC002B5582FB50280ABA002409B9002008803B
:1002FC001DE5825BFBE582D313CF5FCFF4C3132FD5
:10030C005582FF50090EBE00050DBD00010CC3EB5C
:10031C009FF5F0EA9E42F0E99D42F0E89C45F060C2
:09032C0007CC4820E701B3EC22E4
:1003350075F020800E75F010800575F0087D007E43
:10034500007F003392D530D503120567EC3340109A
:10035500EF33FFEE33FEED33FDEC33FCD5F0ED224C
:0E036500E5F0247EA2D513CC92E7CDCEFF2288
:10037300EDD2E7CD33EC3392D524814006E4FFFE82
:10038300FDFC22FCE4CFCECDCC24E0501174FF80E1
:10039300EDC3CC13CCCD13CDCE13CECF13CF04707E
:0703A300F030D5DE02056712
:100CC2000203DF22EDA2E7D2E7F9EC3340F260F350
:100CD200B4FF08ED547F70E80203E9F82481C2E012
:100CE200C0E0F40428FAC313FCED92E7FD90020879
:100CF20012061FEEA2E7E9BA7F02C3133400940082
:100D0200FA75F091A4E5F013F494FE8AF0A433E5A9
:100D1200F033248CD313FDE492E7FE7F007C3F7511
:100D22008302ECC0E0F8EDC0E0F9EEC0E0FAEFC0FB
:100D3200E0FB8583F090020812060385F08312021D
:100D42001FD0E0FBD0E0FAD0E0F9D0E0F8120025A5
:100D5200ED6480FD30E7011CD583C7ED33CC33F859
:0C0D6200D0E0A2E71328C313CC13FD223D
:1003AA00E9D2E7C933E833F892D5EDD2E7CD33EC99
:0703BA0033FC5002B2D52212
:1003C100EC30E7100FBF000C0EBE00080DBD00049D
:1003D1000BEB6014A2D5EB13FCED92E7FD2274FF49
:1003E100FCFDFEFF22E480F8A2D574FF13FC7D80A2
:0303F100E480EFB6
:100D7A00020AEFE493A3F8E493A34003F68001F296
:100D8A0008DFF48029E493A3F85407240CC8C3337A
:100D9A00C4540F4420C8834004F456800146F6DF49
:100DAA00E4800B0102040810204080900FBEE47E0C
:100DBA00019360BCA3FF543F30E509541FFEE4933E
:100DCA00A360010ECF54C025E060A840B8E493A305
:100DDA00FAE493A3F8E493A3C8C582C8CAC583CA30
:100DEA00F0A3C8C582C8CAC583CADFE9DEE780BEE8
:010FC7000029
:1003F400E709F608DFFA8046E709F208DFFA803EEB
:1004040088828C83E709F0A3DFFA8032E309F608D7
:10041400DFFA8078E309F208DFFA807088828C833F
:10042400E309F0A3DFFA806489828A83E0A3F608F3
:10043400DFFA805889828A83E0A3F208DFFA804CCD
:1004440080D280FA80C680D4806980F280338010A4
:1004540080A680EA809A80A880DA80E280CA80330D
:1004640089828A83ECFAE493A3C8C582C8CCC58385
:10047400CCF0A3C8C582C8CCC583CCDFE9DEE78055
:100484000D89828A83E493A3F608DFF9ECFAA9F0D4
:10049400EDFB2289828A83ECFAE0A3C8C582C8CC2A
:1004A400C583CCF0A3C8C582C8CCC583CCDFEADE43
:1004B400E880DB89828A83E493A3F208DFF980CCA5
:1004C40088F0EF60010E4E60C388F0ED2402B4049E
:1004D4000050B9F582EB2402B4040050AF23234545
:0604E40082239004447322
:1004EA00EF8DF0A4A8F0CF8CF0A428CE8DF0A42E26
:0204FA00FE22E0
:1004FC00BC000BBE0029EF8DF084FFADF022E4CCE4
:10050C00F875F008EF2FFFEE33FEEC33FCEE9DECAC
:10051C00984005FCEE9DFE0FD5F0E9E4CEFD22EDF2
:10052C00F8F5F0EE8420D21CFEADF075F008EF2F3C
:10053C00FFED33FD4007985006D5F0F222C398FD2D
:05054C000FD5F0EA22CA
:10055100A3F8E0C5F025F0F0E5821582700215835D
:06056100E0C838F0E822BA
:0E056700C3E49FFFE49EFEE49DFDE49CFC22A5
:10057500BB010789828A830206035005E9F8020652
:100585005CBBFE05E9F802066889828A8302060FCC
:10059500BB010DE58229F582E5833AF58302060361
:1005A5005007E92582F802065CBBFE07E92582F8BB
:1005B500020668E58229F582E5833AF58302060F8E
:1005C500BB010789828A8302061F5005E9F80206E6
:0A05D50074BBFE05E9F8020680225F
:1005DF00BB010DE58229F582E5833AF58302061FFB
:1005EF005007E92582F8020674BBFE07E92582F859
:0405FF00020680224E
:0C060300E0FCA3E0FDA3E0FEA3E0FF226A
:10060F00E493FC740193FD740293FE740393FF2231
:0C061F00ECF0A3EDF0A3EEF0A3EFF0224E
:10062B00A8828583F0D083D0821206421206421232
:10063B000642120642E473E493A3C583C5F0C58357
:10064B00C8C582C8F0A3C583C5F0C583C8C582C819
:01065B00227C
:0C065C00E6FC08E6FD08E6FE08E6FF22CA
:0C066800E2FC08E2FD08E2FE08E2FF22CE
:0C067400ECF608EDF608EEF608EFF622B2
:0C068000ECF208EDF208EEF208EFF222B6
:00000001FF
